{
  "contractName": "RarityEnhance",
  "abi": [
    {
      "inputs": [
        {
          "internalType": "uint256[]",
          "name": "_ids",
          "type": "uint256[]"
        }
      ],
      "name": "adventureAll",
      "outputs": [],
      "stateMutability": "nonpayable",
      "type": "function"
    },
    {
      "inputs": [
        {
          "internalType": "uint256",
          "name": "count",
          "type": "uint256"
        }
      ],
      "name": "summon",
      "outputs": [],
      "stateMutability": "nonpayable",
      "type": "function"
    }
  ],
  "bytecode": "0x6080604052730bc32c4cadb6a17c144784d74575bb00758b34d66000806101000a81548173ffffffffffffffffffffffffffffffffffffffff021916908373ffffffffffffffffffffffffffffffffffffffff16021790555034801561006457600080fd5b506104ff806100746000396000f3fe608060405234801561001057600080fd5b50600436106100365760003560e01c8063035d9f2a1461003b5780638b56341c14610057575b600080fd5b61005560048036038101906100509190610263565b610073565b005b610071600480360381019061006c91906102f5565b610153565b005b60008111801561008557506103e88111155b61008e57600080fd5b60005b8181101561014f5760008054906101000a900473ffffffffffffffffffffffffffffffffffffffff1673ffffffffffffffffffffffffffffffffffffffff1663035d9f2a6001600a846100e49190610371565b6100ee91906103d1565b6040518263ffffffff1660e01b815260040161010a9190610436565b600060405180830381600087803b15801561012457600080fd5b505af1158015610138573d6000803e3d6000fd5b50505050808061014790610451565b915050610091565b5050565b600082829050905060005b8181101561021d5760008054906101000a900473ffffffffffffffffffffffffffffffffffffffff1673ffffffffffffffffffffffffffffffffffffffff1663b00b52f18585848181106101b5576101b461049a565b5b905060200201356040518263ffffffff1660e01b81526004016101d89190610436565b600060405180830381600087803b1580156101f257600080fd5b505af1158015610206573d6000803e3d6000fd5b50505050808061021590610451565b91505061015e565b50505050565b600080fd5b600080fd5b6000819050919050565b6102408161022d565b811461024b57600080fd5b50565b60008135905061025d81610237565b92915050565b60006020828403121561027957610278610223565b5b60006102878482850161024e565b91505092915050565b600080fd5b600080fd5b600080fd5b60008083601f8401126102b5576102b4610290565b5b8235905067ffffffffffffffff8111156102d2576102d1610295565b5b6020830191508360208202830111156102ee576102ed61029a565b5b9250929050565b6000806020838503121561030c5761030b610223565b5b600083013567ffffffffffffffff81111561032a57610329610228565b5b6103368582860161029f565b92509250509250929050565b7f4e487b7100000000000000000000000000000000000000000000000000000000600052601260045260246000fd5b600061037c8261022d565b91506103878361022d565b92508261039757610396610342565b5b828206905092915050565b7f4e487b7100000000000000000000000000000000000000000000000000000000600052601160045260246000fd5b60006103dc8261022d565b91506103e78361022d565b9250827fffffffffffffffffffffffffffffffffffffffffffffffffffffffffffffffff0382111561041c5761041b6103a2565b5b828201905092915050565b6104308161022d565b82525050565b600060208201905061044b6000830184610427565b92915050565b600061045c8261022d565b91507fffffffffffffffffffffffffffffffffffffffffffffffffffffffffffffffff82141561048f5761048e6103a2565b5b600182019050919050565b7f4e487b7100000000000000000000000000000000000000000000000000000000600052603260045260246000fdfea26469706673582212201ce8521563ecb87a52afee5dc85c1cc82af30f1d55b9d4927e94677eacac107164736f6c63430008090033",
  "immutableReferences": {},
  "source": "/**\n *Submitted for verification at FtmScan.com on 2021-09-05\n*/\n\npragma solidity ^0.8.7;\n\ninterface IRarity {\n    function adventure(uint _summoner) external;\n    function level_up(uint _summoner) external;\n    function summon(uint _class) external;\n}\n\n/**\n * @title RarityEnhance\n * @dev \n */\ncontract RarityEnhance {\n    IRarity rarity = IRarity(0x0BC32C4cadb6A17c144784d74575bB00758B34D6);\n\n    // \n    function adventureAll(uint256[] calldata _ids) external {\n        uint len = _ids.length;\n        for (uint i = 0; i < len; i++) {\n            rarity.adventure(_ids[i]);\n        }\n        // that's literally it\n    }\n\n    // \n    function summon(uint count) external {\n      require(count > 0 && count <= 1000);\n      // \n      for (uint i = 0; i < count; i++) {\n        rarity.summon((i % 10) + 1);\n      }\n    }\n\n}",
  "sourcePath": "/Users/liepin/project/merge-nft/contracts/RarityEnhance.sol",
  "compiler": {
    "name": "solc",
    "version": "0.8.9+commit.e5eed63a.Emscripten.clang"
  },
  "schemaVersion": "3.4.3",
  "updatedAt": "2021-10-22T08:25:49.369Z",
  "networkType": "ethereum",
  "devdoc": {
    "kind": "dev",
    "methods": {},
    "title": "RarityEnhance",
    "version": 1
  },
  "userdoc": {
    "kind": "user",
    "methods": {},
    "version": 1
  }
}